{
  "_format": "hh-sol-artifact-1",
  "contractName": "SupplyChain",
  "sourceName": "contracts/SupplyChain.sol",
  "abi": [
    {
      "inputs": [],
      "stateMutability": "nonpayable",
      "type": "constructor"
    },
    {
      "inputs": [],
      "name": "AccessControlBadConfirmation",
      "type": "error"
    },
    {
      "inputs": [
        {
          "internalType": "address",
          "name": "account",
          "type": "address"
        },
        {
          "internalType": "bytes32",
          "name": "neededRole",
          "type": "bytes32"
        }
      ],
      "name": "AccessControlUnauthorizedAccount",
      "type": "error"
    },
    {
      "inputs": [],
      "name": "EnforcedPause",
      "type": "error"
    },
    {
      "inputs": [],
      "name": "ExpectedPause",
      "type": "error"
    },
    {
      "inputs": [
        {
          "internalType": "address",
          "name": "owner",
          "type": "address"
        }
      ],
      "name": "OwnableInvalidOwner",
      "type": "error"
    },
    {
      "inputs": [
        {
          "internalType": "address",
          "name": "account",
          "type": "address"
        }
      ],
      "name": "OwnableUnauthorizedAccount",
      "type": "error"
    },
    {
      "inputs": [],
      "name": "ReentrancyGuardReentrantCall",
      "type": "error"
    },
    {
      "anonymous": false,
      "inputs": [
        {
          "indexed": true,
          "internalType": "uint256",
          "name": "id",
          "type": "uint256"
        },
        {
          "indexed": false,
          "internalType": "enum SupplyChain.AlertLevel",
          "name": "level",
          "type": "uint8"
        },
        {
          "indexed": false,
          "internalType": "string",
          "name": "reason",
          "type": "string"
        },
        {
          "indexed": true,
          "internalType": "address",
          "name": "reporter",
          "type": "address"
        },
        {
          "indexed": false,
          "internalType": "uint256",
          "name": "timestamp",
          "type": "uint256"
        }
      ],
      "name": "AlertRaised",
      "type": "event"
    },
    {
      "anonymous": false,
      "inputs": [
        {
          "indexed": true,
          "internalType": "uint256",
          "name": "id",
          "type": "uint256"
        },
        {
          "indexed": false,
          "internalType": "string",
          "name": "certificationHash",
          "type": "string"
        },
        {
          "indexed": true,
          "internalType": "address",
          "name": "verifier",
          "type": "address"
        },
        {
          "indexed": false,
          "internalType": "uint256",
          "name": "timestamp",
          "type": "uint256"
        }
      ],
      "name": "CertificationVerified",
      "type": "event"
    },
    {
      "anonymous": false,
      "inputs": [
        {
          "indexed": true,
          "internalType": "uint256",
          "name": "id",
          "type": "uint256"
        },
        {
          "indexed": false,
          "internalType": "string",
          "name": "location",
          "type": "string"
        },
        {
          "indexed": true,
          "internalType": "address",
          "name": "updater",
          "type": "address"
        },
        {
          "indexed": false,
          "internalType": "uint256",
          "name": "timestamp",
          "type": "uint256"
        }
      ],
      "name": "LocationUpdated",
      "type": "event"
    },
    {
      "anonymous": false,
      "inputs": [
        {
          "indexed": true,
          "internalType": "address",
          "name": "previousOwner",
          "type": "address"
        },
        {
          "indexed": true,
          "internalType": "address",
          "name": "newOwner",
          "type": "address"
        }
      ],
      "name": "OwnershipTransferred",
      "type": "event"
    },
    {
      "anonymous": false,
      "inputs": [
        {
          "indexed": true,
          "internalType": "uint256",
          "name": "id",
          "type": "uint256"
        },
        {
          "indexed": false,
          "internalType": "string",
          "name": "description",
          "type": "string"
        },
        {
          "indexed": true,
          "internalType": "address",
          "name": "creator",
          "type": "address"
        },
        {
          "indexed": false,
          "internalType": "uint256",
          "name": "timestamp",
          "type": "uint256"
        }
      ],
      "name": "PackageCreated",
      "type": "event"
    },
    {
      "anonymous": false,
      "inputs": [
        {
          "indexed": true,
          "internalType": "uint256",
          "name": "id",
          "type": "uint256"
        },
        {
          "indexed": true,
          "internalType": "address",
          "name": "owner",
          "type": "address"
        },
        {
          "indexed": false,
          "internalType": "uint256",
          "name": "timestamp",
          "type": "uint256"
        }
      ],
      "name": "PackageDelivered",
      "type": "event"
    },
    {
      "anonymous": false,
      "inputs": [
        {
          "indexed": true,
          "internalType": "uint256",
          "name": "id",
          "type": "uint256"
        },
        {
          "indexed": false,
          "internalType": "enum SupplyChain.Status",
          "name": "oldStatus",
          "type": "uint8"
        },
        {
          "indexed": false,
          "internalType": "enum SupplyChain.Status",
          "name": "newStatus",
          "type": "uint8"
        },
        {
          "indexed": true,
          "internalType": "address",
          "name": "updater",
          "type": "address"
        },
        {
          "indexed": false,
          "internalType": "uint256",
          "name": "timestamp",
          "type": "uint256"
        }
      ],
      "name": "PackageStatusUpdated",
      "type": "event"
    },
    {
      "anonymous": false,
      "inputs": [
        {
          "indexed": true,
          "internalType": "uint256",
          "name": "id",
          "type": "uint256"
        },
        {
          "indexed": true,
          "internalType": "address",
          "name": "from",
          "type": "address"
        },
        {
          "indexed": true,
          "internalType": "address",
          "name": "to",
          "type": "address"
        },
        {
          "indexed": false,
          "internalType": "enum SupplyChain.Status",
          "name": "status",
          "type": "uint8"
        },
        {
          "indexed": false,
          "internalType": "uint256",
          "name": "timestamp",
          "type": "uint256"
        }
      ],
      "name": "PackageTransferred",
      "type": "event"
    },
    {
      "anonymous": false,
      "inputs": [
        {
          "indexed": true,
          "internalType": "uint256",
          "name": "id",
          "type": "uint256"
        },
        {
          "indexed": false,
          "internalType": "bool",
          "name": "verified",
          "type": "bool"
        },
        {
          "indexed": true,
          "internalType": "address",
          "name": "verifier",
          "type": "address"
        },
        {
          "indexed": false,
          "internalType": "uint256",
          "name": "timestamp",
          "type": "uint256"
        }
      ],
      "name": "PackageVerified",
      "type": "event"
    },
    {
      "anonymous": false,
      "inputs": [
        {
          "indexed": false,
          "internalType": "address",
          "name": "account",
          "type": "address"
        }
      ],
      "name": "Paused",
      "type": "event"
    },
    {
      "anonymous": false,
      "inputs": [
        {
          "indexed": true,
          "internalType": "bytes32",
          "name": "role",
          "type": "bytes32"
        },
        {
          "indexed": true,
          "internalType": "bytes32",
          "name": "previousAdminRole",
          "type": "bytes32"
        },
        {
          "indexed": true,
          "internalType": "bytes32",
          "name": "newAdminRole",
          "type": "bytes32"
        }
      ],
      "name": "RoleAdminChanged",
      "type": "event"
    },
    {
      "anonymous": false,
      "inputs": [
        {
          "indexed": true,
          "internalType": "bytes32",
          "name": "role",
          "type": "bytes32"
        },
        {
          "indexed": true,
          "internalType": "address",
          "name": "account",
          "type": "address"
        },
        {
          "indexed": true,
          "internalType": "address",
          "name": "sender",
          "type": "address"
        }
      ],
      "name": "RoleGranted",
      "type": "event"
    },
    {
      "anonymous": false,
      "inputs": [
        {
          "indexed": true,
          "internalType": "bytes32",
          "name": "role",
          "type": "bytes32"
        },
        {
          "indexed": true,
          "internalType": "address",
          "name": "account",
          "type": "address"
        },
        {
          "indexed": true,
          "internalType": "address",
          "name": "sender",
          "type": "address"
        }
      ],
      "name": "RoleRevoked",
      "type": "event"
    },
    {
      "anonymous": false,
      "inputs": [
        {
          "indexed": true,
          "internalType": "uint256",
          "name": "id",
          "type": "uint256"
        },
        {
          "indexed": true,
          "internalType": "address",
          "name": "reporter",
          "type": "address"
        },
        {
          "indexed": false,
          "internalType": "uint256",
          "name": "timestamp",
          "type": "uint256"
        }
      ],
      "name": "ShockDetected",
      "type": "event"
    },
    {
      "anonymous": false,
      "inputs": [
        {
          "indexed": true,
          "internalType": "uint256",
          "name": "id",
          "type": "uint256"
        },
        {
          "indexed": false,
          "internalType": "int8",
          "name": "oldTemperature",
          "type": "int8"
        },
        {
          "indexed": false,
          "internalType": "int8",
          "name": "newTemperature",
          "type": "int8"
        },
        {
          "indexed": true,
          "internalType": "address",
          "name": "updater",
          "type": "address"
        },
        {
          "indexed": false,
          "internalType": "uint256",
          "name": "timestamp",
          "type": "uint256"
        }
      ],
      "name": "TemperatureUpdated",
      "type": "event"
    },
    {
      "anonymous": false,
      "inputs": [
        {
          "indexed": false,
          "internalType": "address",
          "name": "account",
          "type": "address"
        }
      ],
      "name": "Unpaused",
      "type": "event"
    },
    {
      "inputs": [],
      "name": "ADMIN_ROLE",
      "outputs": [
        {
          "internalType": "bytes32",
          "name": "",
          "type": "bytes32"
        }
      ],
      "stateMutability": "view",
      "type": "function"
    },
    {
      "inputs": [],
      "name": "DEFAULT_ADMIN_ROLE",
      "outputs": [
        {
          "internalType": "bytes32",
          "name": "",
          "type": "bytes32"
        }
      ],
      "stateMutability": "view",
      "type": "function"
    },
    {
      "inputs": [],
      "name": "MAX_BATCH_SIZE",
      "outputs": [
        {
          "internalType": "uint256",
          "name": "",
          "type": "uint256"
        }
      ],
      "stateMutability": "view",
      "type": "function"
    },
    {
      "inputs": [],
      "name": "MAX_DESCRIPTION_LENGTH",
      "outputs": [
        {
          "internalType": "uint256",
          "name": "",
          "type": "uint256"
        }
      ],
      "stateMutability": "view",
      "type": "function"
    },
    {
      "inputs": [],
      "name": "MAX_PACKAGES_PER_USER",
      "outputs": [
        {
          "internalType": "uint256",
          "name": "",
          "type": "uint256"
        }
      ],
      "stateMutability": "view",
      "type": "function"
    },
    {
      "inputs": [],
      "name": "MIN_DESCRIPTION_LENGTH",
      "outputs": [
        {
          "internalType": "uint256",
          "name": "",
          "type": "uint256"
        }
      ],
      "stateMutability": "view",
      "type": "function"
    },
    {
      "inputs": [],
      "name": "OPERATOR_ROLE",
      "outputs": [
        {
          "internalType": "bytes32",
          "name": "",
          "type": "bytes32"
        }
      ],
      "stateMutability": "view",
      "type": "function"
    },
    {
      "inputs": [],
      "name": "VERIFIER_ROLE",
      "outputs": [
        {
          "internalType": "bytes32",
          "name": "",
          "type": "bytes32"
        }
      ],
      "stateMutability": "view",
      "type": "function"
    },
    {
      "inputs": [],
      "name": "VIEWER_ROLE",
      "outputs": [
        {
          "internalType": "bytes32",
          "name": "",
          "type": "bytes32"
        }
      ],
      "stateMutability": "view",
      "type": "function"
    },
    {
      "inputs": [
        {
          "internalType": "string[]",
          "name": "descriptions",
          "type": "string[]"
        }
      ],
      "name": "createBatch",
      "outputs": [
        {
          "internalType": "uint256[]",
          "name": "",
          "type": "uint256[]"
        }
      ],
      "stateMutability": "nonpayable",
      "type": "function"
    },
    {
      "inputs": [
        {
          "internalType": "string",
          "name": "description",
          "type": "string"
        }
      ],
      "name": "createPackage",
      "outputs": [
        {
          "internalType": "uint256",
          "name": "",
          "type": "uint256"
        }
      ],
      "stateMutability": "nonpayable",
      "type": "function"
    },
    {
      "inputs": [
        {
          "internalType": "address",
          "name": "user",
          "type": "address"
        }
      ],
      "name": "getOwnedPackages",
      "outputs": [
        {
          "internalType": "uint256[]",
          "name": "",
          "type": "uint256[]"
        }
      ],
      "stateMutability": "view",
      "type": "function"
    },
    {
      "inputs": [
        {
          "internalType": "uint256",
          "name": "packageId",
          "type": "uint256"
        }
      ],
      "name": "getPackageDetails",
      "outputs": [
        {
          "internalType": "uint256",
          "name": "id",
          "type": "uint256"
        },
        {
          "internalType": "string",
          "name": "description",
          "type": "string"
        },
        {
          "internalType": "address",
          "name": "creator",
          "type": "address"
        },
        {
          "internalType": "address",
          "name": "currentOwner",
          "type": "address"
        },
        {
          "internalType": "enum SupplyChain.Status",
          "name": "status",
          "type": "uint8"
        },
        {
          "internalType": "uint256",
          "name": "createdAt",
          "type": "uint256"
        },
        {
          "internalType": "uint256",
          "name": "lastUpdatedAt",
          "type": "uint256"
        },
        {
          "internalType": "int8",
          "name": "temperature",
          "type": "int8"
        },
        {
          "internalType": "string",
          "name": "location",
          "type": "string"
        },
        {
          "internalType": "uint8",
          "name": "humidity",
          "type": "uint8"
        },
        {
          "internalType": "bool",
          "name": "shockDetected",
          "type": "bool"
        },
        {
          "internalType": "uint256",
          "name": "expiryDate",
          "type": "uint256"
        },
        {
          "internalType": "string",
          "name": "batchNumber",
          "type": "string"
        },
        {
          "internalType": "string",
          "name": "certification",
          "type": "string"
        },
        {
          "internalType": "enum SupplyChain.AlertLevel",
          "name": "alertLevel",
          "type": "uint8"
        },
        {
          "internalType": "bool",
          "name": "verified",
          "type": "bool"
        },
        {
          "internalType": "address",
          "name": "verifier",
          "type": "address"
        }
      ],
      "stateMutability": "view",
      "type": "function"
    },
    {
      "inputs": [
        {
          "internalType": "bytes32",
          "name": "role",
          "type": "bytes32"
        }
      ],
      "name": "getRoleAdmin",
      "outputs": [
        {
          "internalType": "bytes32",
          "name": "",
          "type": "bytes32"
        }
      ],
      "stateMutability": "view",
      "type": "function"
    },
    {
      "inputs": [],
      "name": "getTotalPackages",
      "outputs": [
        {
          "internalType": "uint256",
          "name": "",
          "type": "uint256"
        }
      ],
      "stateMutability": "view",
      "type": "function"
    },
    {
      "inputs": [
        {
          "internalType": "address",
          "name": "user",
          "type": "address"
        }
      ],
      "name": "getUserPackageCount",
      "outputs": [
        {
          "internalType": "uint256",
          "name": "",
          "type": "uint256"
        }
      ],
      "stateMutability": "view",
      "type": "function"
    },
    {
      "inputs": [
        {
          "internalType": "address",
          "name": "user",
          "type": "address"
        }
      ],
      "name": "getUserPackages",
      "outputs": [
        {
          "internalType": "uint256[]",
          "name": "",
          "type": "uint256[]"
        }
      ],
      "stateMutability": "view",
      "type": "function"
    },
    {
      "inputs": [
        {
          "internalType": "address",
          "name": "account",
          "type": "address"
        }
      ],
      "name": "grantOperatorRole",
      "outputs": [],
      "stateMutability": "nonpayable",
      "type": "function"
    },
    {
      "inputs": [
        {
          "internalType": "bytes32",
          "name": "role",
          "type": "bytes32"
        },
        {
          "internalType": "address",
          "name": "account",
          "type": "address"
        }
      ],
      "name": "grantRole",
      "outputs": [],
      "stateMutability": "nonpayable",
      "type": "function"
    },
    {
      "inputs": [
        {
          "internalType": "address",
          "name": "account",
          "type": "address"
        }
      ],
      "name": "grantVerifierRole",
      "outputs": [],
      "stateMutability": "nonpayable",
      "type": "function"
    },
    {
      "inputs": [
        {
          "internalType": "bytes32",
          "name": "role",
          "type": "bytes32"
        },
        {
          "internalType": "address",
          "name": "account",
          "type": "address"
        }
      ],
      "name": "hasRole",
      "outputs": [
        {
          "internalType": "bool",
          "name": "",
          "type": "bool"
        }
      ],
      "stateMutability": "view",
      "type": "function"
    },
    {
      "inputs": [],
      "name": "owner",
      "outputs": [
        {
          "internalType": "address",
          "name": "",
          "type": "address"
        }
      ],
      "stateMutability": "view",
      "type": "function"
    },
    {
      "inputs": [],
      "name": "pause",
      "outputs": [],
      "stateMutability": "nonpayable",
      "type": "function"
    },
    {
      "inputs": [],
      "name": "paused",
      "outputs": [
        {
          "internalType": "bool",
          "name": "",
          "type": "bool"
        }
      ],
      "stateMutability": "view",
      "type": "function"
    },
    {
      "inputs": [
        {
          "internalType": "uint256",
          "name": "packageId",
          "type": "uint256"
        },
        {
          "internalType": "enum SupplyChain.AlertLevel",
          "name": "level",
          "type": "uint8"
        },
        {
          "internalType": "string",
          "name": "reason",
          "type": "string"
        }
      ],
      "name": "raiseAlert",
      "outputs": [],
      "stateMutability": "nonpayable",
      "type": "function"
    },
    {
      "inputs": [
        {
          "internalType": "uint256",
          "name": "packageId",
          "type": "uint256"
        }
      ],
      "name": "recordShock",
      "outputs": [],
      "stateMutability": "nonpayable",
      "type": "function"
    },
    {
      "inputs": [],
      "name": "renounceOwnership",
      "outputs": [],
      "stateMutability": "nonpayable",
      "type": "function"
    },
    {
      "inputs": [
        {
          "internalType": "bytes32",
          "name": "role",
          "type": "bytes32"
        },
        {
          "internalType": "address",
          "name": "callerConfirmation",
          "type": "address"
        }
      ],
      "name": "renounceRole",
      "outputs": [],
      "stateMutability": "nonpayable",
      "type": "function"
    },
    {
      "inputs": [
        {
          "internalType": "address",
          "name": "account",
          "type": "address"
        }
      ],
      "name": "revokeOperatorRole",
      "outputs": [],
      "stateMutability": "nonpayable",
      "type": "function"
    },
    {
      "inputs": [
        {
          "internalType": "bytes32",
          "name": "role",
          "type": "bytes32"
        },
        {
          "internalType": "address",
          "name": "account",
          "type": "address"
        }
      ],
      "name": "revokeRole",
      "outputs": [],
      "stateMutability": "nonpayable",
      "type": "function"
    },
    {
      "inputs": [
        {
          "internalType": "address",
          "name": "account",
          "type": "address"
        }
      ],
      "name": "revokeVerifierRole",
      "outputs": [],
      "stateMutability": "nonpayable",
      "type": "function"
    },
    {
      "inputs": [
        {
          "internalType": "bytes4",
          "name": "interfaceId",
          "type": "bytes4"
        }
      ],
      "name": "supportsInterface",
      "outputs": [
        {
          "internalType": "bool",
          "name": "",
          "type": "bool"
        }
      ],
      "stateMutability": "view",
      "type": "function"
    },
    {
      "inputs": [],
      "name": "totalPackages",
      "outputs": [
        {
          "internalType": "uint256",
          "name": "",
          "type": "uint256"
        }
      ],
      "stateMutability": "view",
      "type": "function"
    },
    {
      "inputs": [
        {
          "internalType": "uint256[]",
          "name": "packageIds",
          "type": "uint256[]"
        },
        {
          "internalType": "address[]",
          "name": "newOwners",
          "type": "address[]"
        }
      ],
      "name": "transferBatch",
      "outputs": [],
      "stateMutability": "nonpayable",
      "type": "function"
    },
    {
      "inputs": [
        {
          "internalType": "uint256",
          "name": "packageId",
          "type": "uint256"
        },
        {
          "internalType": "address",
          "name": "newOwner",
          "type": "address"
        }
      ],
      "name": "transferOwnership",
      "outputs": [],
      "stateMutability": "nonpayable",
      "type": "function"
    },
    {
      "inputs": [
        {
          "internalType": "address",
          "name": "newOwner",
          "type": "address"
        }
      ],
      "name": "transferOwnership",
      "outputs": [],
      "stateMutability": "nonpayable",
      "type": "function"
    },
    {
      "inputs": [],
      "name": "unpause",
      "outputs": [],
      "stateMutability": "nonpayable",
      "type": "function"
    },
    {
      "inputs": [
        {
          "internalType": "uint256",
          "name": "packageId",
          "type": "uint256"
        },
        {
          "internalType": "string",
          "name": "batchNumber",
          "type": "string"
        }
      ],
      "name": "updateBatchNumber",
      "outputs": [],
      "stateMutability": "nonpayable",
      "type": "function"
    },
    {
      "inputs": [
        {
          "internalType": "uint256",
          "name": "packageId",
          "type": "uint256"
        },
        {
          "internalType": "uint256",
          "name": "expiryDate",
          "type": "uint256"
        }
      ],
      "name": "updateExpiryDate",
      "outputs": [],
      "stateMutability": "nonpayable",
      "type": "function"
    },
    {
      "inputs": [
        {
          "internalType": "uint256",
          "name": "packageId",
          "type": "uint256"
        },
        {
          "internalType": "uint8",
          "name": "humidity",
          "type": "uint8"
        }
      ],
      "name": "updateHumidity",
      "outputs": [],
      "stateMutability": "nonpayable",
      "type": "function"
    },
    {
      "inputs": [
        {
          "internalType": "uint256",
          "name": "packageId",
          "type": "uint256"
        },
        {
          "internalType": "string",
          "name": "location",
          "type": "string"
        }
      ],
      "name": "updateLocation",
      "outputs": [],
      "stateMutability": "nonpayable",
      "type": "function"
    },
    {
      "inputs": [
        {
          "internalType": "uint256",
          "name": "packageId",
          "type": "uint256"
        },
        {
          "internalType": "enum SupplyChain.Status",
          "name": "newStatus",
          "type": "uint8"
        }
      ],
      "name": "updateStatus",
      "outputs": [],
      "stateMutability": "nonpayable",
      "type": "function"
    },
    {
      "inputs": [
        {
          "internalType": "uint256",
          "name": "packageId",
          "type": "uint256"
        },
        {
          "internalType": "int8",
          "name": "temperature",
          "type": "int8"
        }
      ],
      "name": "updateTemperature",
      "outputs": [],
      "stateMutability": "nonpayable",
      "type": "function"
    },
    {
      "inputs": [
        {
          "internalType": "uint256",
          "name": "packageId",
          "type": "uint256"
        }
      ],
      "name": "updateToDelivered",
      "outputs": [],
      "stateMutability": "nonpayable",
      "type": "function"
    },
    {
      "inputs": [
        {
          "internalType": "uint256",
          "name": "packageId",
          "type": "uint256"
        }
      ],
      "name": "updateToDistribution",
      "outputs": [],
      "stateMutability": "nonpayable",
      "type": "function"
    },
    {
      "inputs": [
        {
          "internalType": "uint256",
          "name": "packageId",
          "type": "uint256"
        }
      ],
      "name": "updateToInTransit",
      "outputs": [],
      "stateMutability": "nonpayable",
      "type": "function"
    },
    {
      "inputs": [
        {
          "internalType": "uint256",
          "name": "packageId",
          "type": "uint256"
        }
      ],
      "name": "updateToQualityControl",
      "outputs": [],
      "stateMutability": "nonpayable",
      "type": "function"
    },
    {
      "inputs": [
        {
          "internalType": "uint256",
          "name": "packageId",
          "type": "uint256"
        }
      ],
      "name": "updateToWarehouse",
      "outputs": [],
      "stateMutability": "nonpayable",
      "type": "function"
    },
    {
      "inputs": [
        {
          "internalType": "uint256",
          "name": "packageId",
          "type": "uint256"
        },
        {
          "internalType": "string",
          "name": "certificationHash",
          "type": "string"
        }
      ],
      "name": "verifyCertification",
      "outputs": [],
      "stateMutability": "nonpayable",
      "type": "function"
    },
    {
      "inputs": [
        {
          "internalType": "uint256",
          "name": "packageId",
          "type": "uint256"
        },
        {
          "internalType": "bool",
          "name": "verified",
          "type": "bool"
        }
      ],
      "name": "verifyPackage",
      "outputs": [],
      "stateMutability": "nonpayable",
      "type": "function"
    }
  ],
  "bytecode": "0x60808060405234620000ab573315620000955760008054336001600160a01b0319821681178355916001600160a01b03909116907f8be0079c531659141344cd1fd0a4f28419497f9722a3daafe3b4186f6b6457e09080a3600160025560016004556200006c33620000b0565b50620000783362000131565b506200008433620001d4565b506040516141119081620002738239f35b631e4fbdf760e01b815260006004820152602490fd5b600080fd5b6001600160a01b031660008181527fa6eef7e35abe7026729641147f7915573c7e97b47efa546f5f6e3230263bcb49602052604081205490919060ff166200012d5781805260016020526040822081835260205260408220600160ff198254161790553391600080516020620043848339815191528180a4600190565b5090565b6001600160a01b031660008181527f50efbde2d46c37e9785f1791697f77e94bb7b701e19f1930a668820722d3769460205260408120549091907fa49807205ce4d355092ef5a8a18f56e8913cf4a201fbe287825b095693c217759060ff16620001cf5780835260016020526040832082845260205260408320600160ff1982541617905560008051602062004384833981519152339380a4600190565b505090565b6001600160a01b031660008181527f31c1e66639f421f1853aeefe8ad6b62a3b96f3287efe23106923cd924aa025c260205260408120549091907f97667070c54ef182b0f5858b034beac1b6f3089aa2d3188bb1e8929f4fa9b9299060ff16620001cf5780835260016020526040832082845260205260408320600160ff1982541617905560008051602062004384833981519152339380a460019056fe608080604052600436101561001357600080fd5b60003560e01c90816301ffc9a7146134365750806303190a25146133bb5780630337c0611461339257806315bb7808146131f15780631ef5264914612f7f578063248a9ca314612f5057806327ac0c5814612f2757806329507f7314612e1b5780632e12759d14612cf45780632f2ff15d14612cb557806336568abe14612c6e5780633a1b3d3114612a245780633b75a8b7146122ab5780633f4ba83a14612241578063420c6c21146122255780634e665516146122085780634ec0c9e914611f9857806350219eaf14611f5d5780635a57355d14611e1a5780635c975abb14611df757806361cd6636146104825780636c00403214611cd15780636c435e3614611b4657806370b364a5146118f1578063715018a614611898578063753615cd146117a857806375b238fc1461176d5780638456cb59146117135780638b7aed2b146115ed5780638da5cb5b146115c457806391d14854146115775780639201ea0a1461155a5780639893eb38146113505780639f7c00811461115d578063a1457db514611031578063a217fddf14611015578063a3669aef14610fec578063b0da165f14610eb2578063b219f7d714610e89578063cfdbf25414610e6d578063d547741f14610e2c578063deef537814610da1578063e4e1b28c14610613578063e7705db6146105ea578063ecf75bf8146104a0578063f1542b9414610482578063f2fde38b146103f9578063f5b541a6146103d0578063fcc18c23146103965763fee803601461024557600080fd5b3461039157604036600319011261039157600435602435908115159182810361039157610270613d68565b610278613d86565b600182101580610386575b61028c90613633565b3360009081527fb4fd2442cb0653849f414a2f81c1eb01ec27a0fc1bb28000d4ca51d98b75fd0360205260409020546000805160206140bc8339815191529060ff16156103685750816000526005602052610329604060002091610307600c840191829061ff00825491151560081b169061ff001916179055565b805462010000600160b01b0319163360101b62010000600160b01b0316179055565b6005429101556040519182524260208301527fc4a7e29b220e3180f99c15839a81c704da1e10c27856eb9b13c1784c9961e20660403393a36001600255005b6044906040519063e2517d3f60e01b82523360048301526024820152fd5b506004548210610283565b600080fd5b34610391576020366003190112610391576001600160a01b036103b7613489565b1660005260086020526020604060002054604051908152f35b3461039157600036600319011261039157602060405160008051602061407c8339815191528152f35b3461039157602036600319011261039157610412613489565b61041a61400f565b6001600160a01b0390811690811561046957600054826001600160601b0360a01b821617600055167f8be0079c531659141344cd1fd0a4f28419497f9722a3daafe3b4186f6b6457e0600080a3005b604051631e4fbdf760e01b815260006004820152602490fd5b34610391576000366003190112610391576020600954604051908152f35b34610391576040366003190112610391576004356024359060ff8216809203610391576104cb613d68565b6104d3613d86565b6001811015806105df575b6104e790613633565b600052600560205260406000209060018060a01b03600383015416331480156105b9575b1561057357606481116105355760088201805460ff19169091179055426005909101556001600255005b60405162461bcd60e51b8152602060048201526016602482015275048756d6964697479206d75737420626520302d3130360541b6044820152606490fd5b60405162461bcd60e51b815260206004820152602a602482015260008051602061405c833981519152604482015269652068756d696469747960b01b6064820152608490fd5b5033600090815260008051602061403c833981519152602052604090205460ff1661050b565b5060045481106104de565b346103915760003660031901126103915760206040516000805160206140bc8339815191528152f35b34610391576020366003190112610391576004356001600160401b038111610391576106439036906004016134f1565b61064b613d68565b610653613d86565b61065e368284613a20565b6003815110610d64576101f4905111610d28578015610ce3573360005260086020526106926103e860406000205410613983565b600454906040516106a2816135db565b8281526106b0368386613a20565b6020820152336040820152336060820152600060808201524260a08201524260c0820152600060e08201526040516106e7816135f7565b60008152610100820152600061012082015260006101408201526000610160820152604051610715816135f7565b6000815261018082015260405161072b816135f7565b600081526101a082015260006101c082015260006101e0820152600061020082015282600052600560205260406000208151815560208201518051906001600160401b038211610b6c5761078f8261078660018601546136f4565b6001860161372e565b602090601f8311600114610c71576107c0929160009183610b82575b50508160011b916000199060031b1c19161790565b60018201555b60408201516002820180546001600160a01b039283166001600160a01b031991821617909155606084015160038401805491909316911617905560808201516006811015610ad85761081b90600383016136d0565b60a0820151600482015560c082015160058201556006810160e083015160ff198254169060ff161790556101008201518051906001600160401b038211610b6c576108768261086d60078601546136f4565b6007860161372e565b602090601f8311600114610bff576108a6929160009183610b825750508160011b916000199060031b1c19161790565b60078201555b6108e46008820160ff6101208501511660ff19825416178155610140840151151561ff00825491151560081b169061ff001916179055565b61016082015160098201556101808201518051906001600160401b038211610b6c5761092082610917600a8601546136f4565b600a860161372e565b602090601f8311600114610b8d57610950929160009183610b825750508160011b916000199060031b1c19161790565b600a8201555b6101a08201518051906001600160401b038211610b6c576109878261097e600b8601546136f4565b600b860161372e565b602090601f8311600114610af95791806109bb92600c9594600092610aee5750508160011b916000199060031b1c19161790565b600b8201555b016101c0820151916003831015610ad857602095610a4c83610abf93610a0989977f497ae73a6aad31a3d3818d24258a7de81d18c9b7152c35b1859accc79a1d9a9997613a66565b6101e0810151825461ff00191690151560081b61ff00161782556102000151815462010000600160b01b03191660109190911b62010000600160b01b0316179055565b3360005260068752610a628460406000206138a0565b3360005260078752610a788460406000206138a0565b33600052600887526040600020610a8f8154613a7e565b9055610a9c600954613a7e565b600955610aaa600454613a7e565b60045560405194604086526040860191613784565b9242868201528033940390a36001600255604051908152f35b634e487b7160e01b600052602160045260246000fd5b0151905089806107ab565b90600b840160005260206000209160005b601f1985168110610b545750918391600193600c9695601f19811610610b3b575b505050811b01600b8201556109c1565b015160001960f88460031b161c19169055888080610b2b565b91926020600181928685015181550194019201610b0a565b634e487b7160e01b600052604160045260246000fd5b0151905088806107ab565b9190600a84016000526020600020906000935b601f1984168510610be4576001945083601f19811610610bcb575b505050811b01600a820155610956565b015160001960f88460031b161c19169055878080610bbb565b81810151835560209485019460019093019290910190610ba0565b9190600784016000526020600020906000935b601f1984168510610c56576001945083601f19811610610c3d575b505050811b0160078201556108ac565b015160001960f88460031b161c19169055878080610c2d565b81810151835560209485019460019093019290910190610c12565b9190600184016000526020600020906000935b601f1984168510610cc8576001945083601f19811610610caf575b505050811b0160018201556107c6565b015160001960f88460031b161c19169055878080610c9f565b81810151835560209485019460019093019290910190610c84565b60405162461bcd60e51b815260206004820152601b60248201527f4465736372697074696f6e2063616e6e6f7420626520656d70747900000000006044820152606490fd5b60405162461bcd60e51b81526020600482015260146024820152734465736372697074696f6e20746f6f206c6f6e6760601b6044820152606490fd5b60405162461bcd60e51b815260206004820152601560248201527411195cd8dc9a5c1d1a5bdb881d1bdbc81cda1bdc9d605a1b6044820152606490fd5b3461039157602080600319360112610391576001600160a01b03610dc3613489565b1660005260066020526040600020906040519081602084549182815201936000526020600020916000905b828210610e1557610e1185610e0581890382613612565b604051918291826134b5565b0390f35b835486529485019460019384019390910190610dee565b3461039157604036600319011261039157610e6b600435610e4b61349f565b90806000526001602052610e66600160406000200154613b9c565b613f98565b005b3461039157600036600319011261039157602060405160328152f35b3461039157602036600319011261039157610e6b610ea5613489565b610ead613b40565b613f10565b346103915760208060031936011261039157600435610ecf613d68565b610ed7613d86565b600181101580610fe1575b610eeb90613633565b8060005260058252604060002060018060a01b0360038201541633148015610fb1575b15610f5c576008810161010061ff00198254161790556005429101557f0a0d3cf69d3bc73da8fd444146199b66161286718468067b81f34a48222b76a4604051924284523393a36001600255005b60405162461bcd60e51b815260048101849052602760248201527f4f6e6c79206f776e6572206f72206f70657261746f722063616e207265636f72604482015266642073686f636b60c81b6064820152608490fd5b5060008051602061407c83398151915260005260018352604060002033600052835260ff60406000205416610f0e565b506004548110610ee2565b3461039157602036600319011261039157610e6b611008613489565b611010613b40565b613e76565b3461039157600036600319011261039157602060405160008152f35b346103915760203660031901126103915760043561104d613d68565b611055613d86565b600181101580611152575b61106990613633565b6000818152600560205260409020600381018054929190611094336001600160a01b03861614613678565b60ff8460a01c16936006851015610ad857600185036110fb5760ff60a01b1916600160a11b1790554260059190910155604051916110d39083906135c1565b6002602083015242604083015260008051602061409c83398151915260603393a36001600255005b60405162461bcd60e51b815260206004820152602960248201527f5061636b616765206d75737420626520696e205175616c69747920436f6e74726044820152686f6c2073746174757360b81b6064820152608490fd5b506004548110611060565b34610391576040366003190112610391576001600160401b036004358181116103915761118e903690600401613551565b9091602435908111610391576111a8903690600401613551565b9190926111b3613d68565b6111bb613d86565b6111c6821515613906565b828203611313576111da6032831115613940565b60005b8281106111eb576001600255005b6111f6818484613b30565b3590611203818688613b30565b356001600160a01b0381168103610391578260018094101580611308575b61122a90613633565b61123c848060a01b038316151561383d565b61124f33858060a01b03841614156137a5565b806000526005907f895a863ec58b7b978c27d4d0100da15331bb862ee3c9f6021bc6d3e34c269e0b604060209484865260ff8260002060038101908a8060a01b038254169761129f8933146137f1565b6112a9888a613da7565b8b8060a01b0385166001600160601b0360a01b84541617835542910155898060a01b038316600052600788526112e286856000206138a0565b5460a01c16956112f4835180986135c1565b4290870152878060a01b031694a4016111dd565b506004548110611221565b60405162461bcd60e51b8152602060048201526015602482015274082e4e4c2f240d8cadccee8d040dad2e6dac2e8c6d605b1b6044820152606490fd5b346103915761135e3661351e565b611369929192613d68565b611371613d86565b600191828110158061154f575b61138790613633565b6000526020926005845260406000209160018060a01b0360038401541633148015611520575b156114d6576064811161149957600a8301916001600160401b038211610b6c576113e1826113db85546136f4565b8561372e565b600095601f831160011461143157506114159293949582916000926114265750508160011b916000199060031b1c19161790565b90555b600542910155600255600080f35b0135905086806107ab565b90601f198316968460005282600020926000905b8982106114825750508387989795969710611468575b505050811b019055611418565b0135600019600384901b60f8161c1916905585808061145b565b808984968294958701358155019501920190611445565b60405162461bcd60e51b81526004810186905260156024820152744261746368206e756d62657220746f6f206c6f6e6760581b6044820152606490fd5b60405162461bcd60e51b815260048101869052602e602482015260008051602061405c83398151915260448201526d32903130ba31b410373ab6b132b960911b6064820152608490fd5b5060008051602061407c833981519152600052838552604060002033600052855260ff604060002054166113ad565b50600454811061137e565b346103915760003660031901126103915760206040516101f48152f35b346103915760403660031901126103915761159061349f565b600435600052600160205260406000209060018060a01b0316600052602052602060ff604060002054166040519015158152f35b34610391576000366003190112610391576000546040516001600160a01b039091168152602090f35b3461039157602036600319011261039157600435611609613d68565b611611613d86565b600181101580611708575b61162590613633565b6000818152600560205260409020600381018054929190611650336001600160a01b03861614613678565b60ff8460a01c16936006851015610ad857600385036116b75760ff60a01b1916600160a21b17905542600591909101556040519161168f9083906135c1565b6004602083015242604083015260008051602061409c83398151915260603393a36001600255005b60405162461bcd60e51b8152602060048201526024808201527f5061636b616765206d75737420626520696e20496e205472616e7369742073746044820152636174757360e01b6064820152608490fd5b50600454811061161c565b346103915760003660031901126103915761172c613b40565b611734613d68565b600160ff1960035416176003557f62e78cea01bee320cd4e420270b5ea74000d11b0c9f74754ebdbfc544b05a2586020604051338152a1005b346103915760003660031901126103915760206040517fa49807205ce4d355092ef5a8a18f56e8913cf4a201fbe287825b095693c217758152f35b34610391576040366003190112610391576004356117c4613d68565b6117cc613d86565b60018110158061188d575b6117e090613633565b6000526005602052604060002060018060a01b0360038201541633148015611867575b1561181e576024356009820155426005909101556001600255005b60405162461bcd60e51b815260206004820152602d602482015260008051602061405c83398151915260448201526c6520657870697279206461746560981b6064820152608490fd5b5033600090815260008051602061403c833981519152602052604090205460ff16611803565b5060045481106117d7565b34610391576000366003190112610391576118b161400f565b600080546001600160a01b0319811682556001600160a01b03167f8be0079c531659141344cd1fd0a4f28419497f9722a3daafe3b4186f6b6457e08280a3005b34610391576060366003190112610391576024356004356003821015610391576044356001600160401b038111610391576119309036906004016134f1565b611938613d68565b611940613d86565b600183101580611b3b575b61195490613633565b82600052602060058152604060002060018060a01b0360038201541633148015611b0b575b8015611adb575b15611a7b576101f48311611a445785156119ff579160607f4ed211397d55327b0a5bc5f1906a923aa4c0696b6250e2ba514b9f8c8f6ecbf39492846119cb89600c6119eb9801613a66565b6005429101556119de60405180996135ce565b8701526060860191613784565b924260408201528033940390a36001600255005b60405162461bcd60e51b815260048101839052601760248201527f43616e6e6f74207261697365204e6f6e6520616c6572740000000000000000006044820152606490fd5b60405162461bcd60e51b815260048101839052600f60248201526e526561736f6e20746f6f206c6f6e6760881b6044820152606490fd5b60405162461bcd60e51b815260048101839052603260248201527f4f6e6c79206f776e65722c206f70657261746f722c206f722076657269666965604482015271722063616e20726169736520616c6572747360701b6064820152608490fd5b506000805160206140bc83398151915260005260018252604060002033600052825260ff60406000205416611980565b5060008051602061407c83398151915260005260018252604060002033600052825260ff60406000205416611979565b50600454831061194b565b3461039157602036600319011261039157600435600181101580611cc6575b611b6e90613633565b60005260056020526040600020805490600160a01b600190039182600283015416926003830154600484015493600581015494600682015460000b94600883015491600984015491600c8501549760018601611bc990613a8d565b99611bd660078801613a8d565b93611be3600a8901613a8d565b97600b01611bf090613a8d565b986040519d8e9d8e966102209088528060208901528701611c1091613581565b95604001528c8b8216906060015260808d019060a01c60ff1690611c33916135c1565b60a08c015260c08b015260e08a01528881036101008a0152611c5491613581565b9160ff811661012089015260081c60ff161515610140880152610160870152858103610180870152611c8591613581565b8481036101a0860152611c9791613581565b91611ca96101c0850160ff83166135ce565b8060081c60ff1615156101e085015260101c166102008301520390f35b506004548110611b65565b3461039157602036600319011261039157600435611ced613d68565b611cf5613d86565b600181101580611dec575b611d0990613633565b6000818152600560205260409020600381018054929190611d34336001600160a01b03861614613678565b60ff8460a01c16936006851015610ad85760028503611d9b5760ff60a01b1916600360a01b179055426005919091015560405191611d739083906135c1565b6003602083015242604083015260008051602061409c83398151915260603393a36001600255005b60405162461bcd60e51b815260206004820152602360248201527f5061636b616765206d75737420626520696e2057617265686f7573652073746160448201526274757360e81b6064820152608490fd5b506004548110611d00565b3461039157600036600319011261039157602060ff600354166040519015158152f35b3461039157604036600319011261039157600435602435908160000b80830361039157611e45613d68565b611e4d613d86565b600182101580611f52575b611e6190613633565b816000526005602052604060002060018060a01b0360038201541633148015611f2c575b15611ee3576006810180549460ff1660ff1986161790556005429101556040519260000b835260208301524260408301527f4c76c3b02a21e0d1ac6f5c2ae3038523e213e41dc0e4e093066ffb5c6b8e6ada60603393a36001600255005b60405162461bcd60e51b815260206004820152602d602482015260008051602061405c83398151915260448201526c652074656d706572617475726560981b6064820152608490fd5b5033600090815260008051602061403c833981519152602052604090205460ff16611e85565b506004548210611e58565b346103915760003660031901126103915760206040517f4e8c8e9ca39468bb90c81b80f979119441019fdac7cbbbd930e0a604f8777d1d8152f35b3461039157611fa63661351e565b611fb1929192613d68565b611fb9613d86565b60019182811015806121fd575b611fcf90613633565b8060005260209160058352604060002060018060a01b03600382015416331480156121ce575b156121885760c8821161214357600781016001600160401b038311610b6c576120288361202283546136f4565b8361372e565b6000601f84116001146120b857917ff05904383d6510f18305c15c837b3310129958a9d133885d7323e8514cb64f3e9495969791612081858061209c966000916120ad575b508160011b916000199060031b1c19161790565b90555b60054291015560405192604084526040840191613784565b9342908201528033940390a3600255005b90508501358c61206d565b601f1984169082600052866000209160005b81811061212e5750917ff05904383d6510f18305c15c837b3310129958a9d133885d7323e8514cb64f3e9697989993918661209c969410612114575b50508885811b019055612084565b840135600019600388901b60f8161c191690558980612106565b8a8301358455928901929188019188016120ca565b60405162461bcd60e51b815260048101859052601860248201527f4c6f636174696f6e20737472696e6720746f6f206c6f6e6700000000000000006044820152606490fd5b60405162461bcd60e51b815260048101859052602a602482015260008051602061405c83398151915260448201526932903637b1b0ba34b7b760b11b6064820152608490fd5b5060008051602061407c833981519152600052848452604060002033600052845260ff60406000205416611ff5565b506004548110611fc6565b346103915760003660031901126103915760206040516103e88152f35b3461039157600036600319011261039157602060405160038152f35b346103915760003660031901126103915761225a613b40565b60035460ff8116156122995760ff19166003557f5db9ee0a495bf2e6ff9c91a7834c1ba4fdd244a5e8aa4e537bd38aeae4b073aa6020604051338152a1005b604051638dfc202b60e01b8152600490fd5b34610391576020366003190112610391576004356001600160401b038111610391576122db903690600401613551565b6122e3613d68565b6122eb613d86565b6122f6811515613906565b6123036032821115613940565b3360005260086020526123286103e8612321836040600020546138e3565b1115613983565b612331816139c8565b9061233f6040519283613612565b80825261234b816139c8565b601f190136602084013760005b81811061239057610e11838333600052600860205261237d60406000209182546138e3565b90556001600255604051918291826134b5565b6123a561239e8284876139df565b3691613a20565b5160038110159081612a17575b50156129d257600454906123e36123ca8285886139df565b9190604051926123d9846135db565b8584523691613a20565b6020820152336040820152336060820152600060808201524260a08201524260c0820152600060e082015260405161241a816135f7565b60008152610100820152600061012082015260006101408201526000610160820152604051612448816135f7565b6000815261018082015260405161245e816135f7565b600081526101a082015260006101c082015260006101e0820152600061020082015282600052600560205260406000208151815560208201518051906001600160401b038211610b6c576124b98261078660018601546136f4565b602090601f8311600114612962576124e99291600091836128075750508160011b916000199060031b1c19161790565b60018201555b60408201516002820180546001600160a01b039283166001600160a01b031991821617909155606084015160038401805491909316911617905560808201516006811015610ad85761254490600383016136d0565b60a0820151600482015560c082015160058201556006810160e083015160ff198254169060ff161790556101008201518051906001600160401b038211610b6c576125968261086d60078601546136f4565b602090601f83116001146128f2576125c69291600091836128075750508160011b916000199060031b1c19161790565b60078201555b6126046008820160ff6101208501511660ff19825416178155610140840151151561ff00825491151560081b169061ff001916179055565b61016082015160098201556101808201518051906001600160401b038211610b6c5761263782610917600a8601546136f4565b602090601f8311600114612882576126679291600091836128075750508160011b916000199060031b1c19161790565b600a8201555b6101a08201518051906001600160401b038211610b6c576126958261097e600b8601546136f4565b602090601f8311600114612812576126c59291600091836128075750508160011b916000199060031b1c19161790565b600b8201555b6101c08201516003811015610ad85761273a926126ec600c92838501613a66565b6101e0810151838301805461ff00191691151560081b61ff001691909117905561020001519101805462010000600160b01b03191660109290921b62010000600160b01b0316919091179055565b3360005260066020526127518260406000206138a0565b3360005260076020526127688260406000206138a0565b83518110156127f1576127de8260019360208460051b8801015261278d600454613a7e565b60045561279b600954613a7e565b6009557f497ae73a6aad31a3d3818d24258a7de81d18c9b7152c35b1859accc79a1d9a996127ca84878a6139df565b939060405194604086526040860191613784565b924260208201528033940390a301612358565b634e487b7160e01b600052603260045260246000fd5b015190508a806107ab565b90600b840160005260206000209160005b601f198516811061286a575090839291600194601f19811610612851575b505050811b01600b8201556126cb565b015160001960f88460031b161c19169055898080612841565b81830151845560019093019260209283019201612823565b90600a840160005260206000209160005b601f19851681106128da575090839291600194601f198116106128c1575b505050811b01600a82015561266d565b015160001960f88460031b161c191690558980806128b1565b81830151845560019093019260209283019201612893565b906007840160005260206000209160005b601f198516811061294a575090839291600194601f19811610612931575b505050811b0160078201556125cc565b015160001960f88460031b161c19169055898080612921565b81830151845560019093019260209283019201612903565b906001840160005260206000209160005b601f19851681106129ba575090839291600194601f198116106129a1575b505050811b0160018201556124ef565b015160001960f88460031b161c19169055898080612991565b81830151845560019093019260209283019201612973565b60405162461bcd60e51b815260206004820152601a60248201527f496e76616c6964206465736372697074696f6e206c656e6774680000000000006044820152606490fd5b6101f491501115856123b2565b346103915760403660031901126103915760248035600435600682101561039157612a4d613d68565b612a55613d86565b600181101580612c63575b612a6990613633565b80600052602091600583526040600020926003840180549060ff60018060a01b0392612a988482163314613678565b60a01c16956006871015612c4e5786851115612c0a5760018701808811612bf5578503612ba6576005851490811582612b9c575b15612b5857612b0496979850612ae286846136d0565b600542910155612b25575b5050612afc60405180966135c1565b8401906135c1565b42604083015260008051602061409c83398151915260603393a36001600255005b5416847f234136390d730312c8db2dcecfe8cb9c50c43b98cc889c17b0fc0f38ac5667fd83604051428152a38580612aed565b60405162461bcd60e51b8152600481018690526019818b01527f496e76616c696420737461747573207472616e736974696f6e000000000000006044820152606490fd5b5060048814612acc565b608484896040519162461bcd60e51b83526004830152808201527f43616e206f6e6c7920616476616e6365206f6e6520737461676520617420612060448201526374696d6560e01b6064820152fd5b88634e487b7160e01b60005260116004526000fd5b60405162461bcd60e51b815260048101859052601f818a01527f43616e206f6e6c7920616476616e63652073746174757320666f7277617264006044820152606490fd5b87634e487b7160e01b60005260216004526000fd5b506004548110612a60565b3461039157604036600319011261039157612c8761349f565b336001600160a01b03821603612ca357610e6b90600435613f98565b60405163334bd91960e11b8152600490fd5b3461039157604036600319011261039157610e6b600435612cd461349f565b90806000526001602052612cef600160406000200154613b9c565b613ced565b3461039157602036600319011261039157600435612d10613d68565b612d18613d86565b600181101580612e10575b612d2c90613633565b6000818152600560205260409020600381018054929190612d57336001600160a01b03861614613678565b60ff8460a01c16936006851015610ad85784612dbb5760ff60a01b1916600160a01b179055426005919091015560405191612d939083906135c1565b6001602083015242604083015260008051602061409c83398151915260603393a36001600255005b60405162461bcd60e51b815260206004820152602760248201527f5061636b616765206d75737420626520696e204d616e75666163747572696e676044820152662073746174757360c81b6064820152608490fd5b506004548110612d23565b3461039157604036600319011261039157600435612e3761349f565b612e3f613d68565b612e47613d86565b600182101580612f1c575b612e5b90613633565b6001600160a01b0390811691612e73338414156137a5565b8060005260056020527f895a863ec58b7b978c27d4d0100da15331bb862ee3c9f6021bc6d3e34c269e0b604060ff8160002094600386019081541695612eba8733146137f1565b612ec588151561383d565b612ecf8688613da7565b876001600160601b0360a01b835416178255600542910155866000526007602052612efd85846000206138a0565b5460a01c16612f0e825180926135c1565b426020820152a46001600255005b506004548210612e52565b3461039157602036600319011261039157610e6b612f43613489565b612f4b613b40565b613c63565b346103915760203660031901126103915760043560005260016020526020600160406000200154604051908152f35b3461039157612f8d3661351e565b612f98929192613d68565b612fa0613d86565b60019182811015806131e6575b612fb690613633565b8060005260209160058352604060002060018060a01b03600382015416331480156131b7575b8015613188575b1561311d5760c882116130d857600b81016001600160401b038311610b6c576130108361202283546136f4565b6000601f841160011461306857917f97b097215a679231381712be8ebe5f92b09115755ac3a3b7195ab67dbb23164d9495969791612081858061209c966000916120ad57508160011b916000199060031b1c19161790565b601f1984169082600052866000209160005b8181106130c35750917f97b097215a679231381712be8ebe5f92b09115755ac3a3b7195ab67dbb23164d9697989993918661209c9694106121145750508885811b019055612084565b8a83013584559289019291880191880161307a565b60405162461bcd60e51b815260048101859052601b60248201527f43657274696669636174696f6e206861736820746f6f206c6f6e6700000000006044820152606490fd5b60405162461bcd60e51b815260048101859052603a60248201527f4f6e6c79206f776e65722c2076657269666965722c206f72206f70657261746f60448201527f722063616e207665726966792063657274696669636174696f6e0000000000006064820152608490fd5b5060008051602061407c833981519152600052848452604060002033600052845260ff60406000205416612fe3565b506000805160206140bc833981519152600052848452604060002033600052845260ff60406000205416612fdc565b506004548110612fad565b3461039157602080600319360112610391576004359061320f613d68565b613217613d86565b600182101580613387575b61322b90613633565b6000828152600582526040902060038101805493909290916001600160a01b03851690613259338314613678565b60ff8660a01c16946006861015610ad8576004860361333357600586146132ee5760059495968560a01b9060ff60a01b19161790558342910155837f234136390d730312c8db2dcecfe8cb9c50c43b98cc889c17b0fc0f38ac5667fd83604051428152a36132ca60405180956135c1565b83015242604083015260008051602061409c83398151915260603393a36001600255005b60405162461bcd60e51b815260048101859052601960248201527f5061636b61676520616c72656164792064656c697665726564000000000000006044820152606490fd5b60405162461bcd60e51b815260048101859052602660248201527f5061636b616765206d75737420626520696e20446973747269627574696f6e2060448201526573746174757360d01b6064820152608490fd5b506004548210613222565b3461039157602036600319011261039157610e6b6133ae613489565b6133b6613b40565b613bc2565b3461039157602080600319360112610391576001600160a01b036133dd613489565b1660005260076020526040600020906040519081602084549182815201936000526020600020916000905b82821061341f57610e1185610e0581890382613612565b835486529485019460019384019390910190613408565b34610391576020366003190112610391576004359063ffffffff60e01b821680920361039157602091637965db0b60e01b8114908115613478575b5015158152f35b6301ffc9a760e01b14905083613471565b600435906001600160a01b038216820361039157565b602435906001600160a01b038216820361039157565b602090602060408183019282815285518094520193019160005b8281106134dd575050505090565b8351855293810193928101926001016134cf565b9181601f84011215610391578235916001600160401b038311610391576020838186019501011161039157565b9060406003198301126103915760043591602435906001600160401b0382116103915761354d916004016134f1565b9091565b9181601f84011215610391578235916001600160401b038311610391576020808501948460051b01011161039157565b919082519283825260005b8481106135ad575050826000602080949584010152601f8019910116010190565b60208183018101518483018201520161358c565b906006821015610ad85752565b906003821015610ad85752565b61022081019081106001600160401b03821117610b6c57604052565b602081019081106001600160401b03821117610b6c57604052565b90601f801991011681019081106001600160401b03821117610b6c57604052565b1561363a57565b60405162461bcd60e51b8152602060048201526016602482015275141858dad859d948191bd95cc81b9bdd08195e1a5cdd60521b6044820152606490fd5b1561367f57565b60405162461bcd60e51b8152602060048201526024808201527f4f6e6c792063757272656e74206f776e65722063616e207570646174652073746044820152636174757360e01b6064820152608490fd5b906006811015610ad857815460ff60a01b191660a09190911b60ff60a01b16179055565b90600182811c92168015613724575b602083101461370e57565b634e487b7160e01b600052602260045260246000fd5b91607f1691613703565b90601f811161373c57505050565b6000916000526020600020906020601f850160051c8301941061377a575b601f0160051c01915b82811061376f57505050565b818155600101613763565b909250829061375a565b908060209392818452848401376000828201840152601f01601f1916010190565b156137ac57565b60405162461bcd60e51b815260206004820152601760248201527f43616e6e6f74207472616e7366657220746f2073656c660000000000000000006044820152606490fd5b156137f857565b60405162461bcd60e51b815260206004820152601f60248201527f4f6e6c792063757272656e74206f776e65722063616e207472616e73666572006044820152606490fd5b1561384457565b606460405162461bcd60e51b815260206004820152602060248201527f4e6577206f776e65722063616e6e6f74206265207a65726f20616464726573736044820152fd5b80548210156127f15760005260206000200190600090565b9081549168010000000000000000831015610b6c57826138c89160016138e195018155613888565b90919082549060031b91821b91600019901b1916179055565b565b919082018092116138f057565b634e487b7160e01b600052601160045260246000fd5b1561390d57565b60405162461bcd60e51b815260206004820152600b60248201526a08adae0e8f240c4c2e8c6d60ab1b6044820152606490fd5b1561394757565b60405162461bcd60e51b815260206004820152601460248201527342617463682073697a6520746f6f206c6172676560601b6044820152606490fd5b1561398a57565b60405162461bcd60e51b8152602060048201526016602482015275141858dad859d9481b1a5b5a5d08195e18d95959195960521b6044820152606490fd5b6001600160401b038111610b6c5760051b60200190565b91908110156127f15760051b81013590601e19813603018212156103915701908135916001600160401b038311610391576020018236038113610391579190565b9291926001600160401b038211610b6c5760405191613a49601f8201601f191660200184613612565b829481845281830111610391578281602093846000960137010152565b906003811015610ad85760ff80198354169116179055565b60001981146138f05760010190565b90604051918260008254613aa0816136f4565b90818452602094600191600181169081600014613b0e5750600114613acf575b5050506138e192500383613612565b600090815285812095935091905b818310613af65750506138e19350820101388080613ac0565b85548884018501529485019487945091830191613add565b925050506138e194925060ff191682840152151560051b820101388080613ac0565b91908110156127f15760051b0190565b3360009081527f50efbde2d46c37e9785f1791697f77e94bb7b701e19f1930a668820722d3769460205260409020547fa49807205ce4d355092ef5a8a18f56e8913cf4a201fbe287825b095693c217759060ff16156103685750565b80600052600160205260406000203360005260205260ff60406000205416156103685750565b6001600160a01b031660008181527fb4fd2442cb0653849f414a2f81c1eb01ec27a0fc1bb28000d4ca51d98b75fd0360205260408120549091906000805160206140bc8339815191529060ff16613c5e5780835260016020526040832082845260205260408320600160ff198254161790557f2f8788117e7eff1d82e926ec794901d17c78024a50270940304540a733656f0d339380a4600190565b505090565b6001600160a01b0316600081815260008051602061403c833981519152602052604081205490919060008051602061407c8339815191529060ff16613c5e5780835260016020526040832082845260205260408320600160ff198254161790557f2f8788117e7eff1d82e926ec794901d17c78024a50270940304540a733656f0d339380a4600190565b906000918083526001602052604083209160018060a01b03169182845260205260ff60408420541615600014613c5e5780835260016020526040832082845260205260408320600160ff198254161790557f2f8788117e7eff1d82e926ec794901d17c78024a50270940304540a733656f0d339380a4600190565b60ff60035416613d7457565b60405163d93c066560e01b8152600490fd5b6002805414613d955760028055565b604051633ee5aeb560e01b8152600490fd5b6001600160a01b03166000908152600760205260408120909190825b815480821015613e6f578390613dd98385613888565b929054600393841b1c14613df1575050600101613dc3565b929350939060001992838101908111613e5b57906138c8613e15613e229387613888565b905490881b1c9186613888565b8254908115613e475750810192613e398484613888565b81939154921b1b1916905555565b634e487b7160e01b81526031600452602490fd5b634e487b7160e01b83526011600452602483fd5b5050505050565b6001600160a01b031660008181527fb4fd2442cb0653849f414a2f81c1eb01ec27a0fc1bb28000d4ca51d98b75fd0360205260408120549091906000805160206140bc8339815191529060ff1615613c5e578083526001602052604083208284526020526040832060ff1981541690557ff6391f5c32d9c69d2a47ea670b442974b53935d1edc7fd64eb21e047a839171b339380a4600190565b6001600160a01b0316600081815260008051602061403c833981519152602052604081205490919060008051602061407c8339815191529060ff1615613c5e578083526001602052604083208284526020526040832060ff1981541690557ff6391f5c32d9c69d2a47ea670b442974b53935d1edc7fd64eb21e047a839171b339380a4600190565b906000918083526001602052604083209160018060a01b03169182845260205260ff604084205416600014613c5e578083526001602052604083208284526020526040832060ff1981541690557ff6391f5c32d9c69d2a47ea670b442974b53935d1edc7fd64eb21e047a839171b339380a4600190565b6000546001600160a01b0316330361402357565b60405163118cdaa760e01b8152336004820152602490fdfe31c1e66639f421f1853aeefe8ad6b62a3b96f3287efe23106923cd924aa025c24f6e6c79206f776e6572206f72206f70657261746f722063616e20757064617497667070c54ef182b0f5858b034beac1b6f3089aa2d3188bb1e8929f4fa9b92984c0e80e3880a8a8519172223de657fd8834190e078fb0a03688f5442bd2dc2c0ce23c3e399818cfee81a7ab0880f714e53d7672b08df0fa62f2843416e1ea09a2646970667358221220133af99f89c6252b77be18465640d5081b7e2aadaa3bc4bd034d9c912e679bd164736f6c634300081800332f8788117e7eff1d82e926ec794901d17c78024a50270940304540a733656f0d",
  "linkReferences": {},
  "deployedLinkReferences": {}
}