{
  "_format": "hh-sol-artifact-1",
  "contractName": "SupplyChain",
  "sourceName": "contracts/SupplyChain.sol",
  "abi": [
    {
      "inputs": [],
      "stateMutability": "nonpayable",
      "type": "constructor"
    },
    {
      "inputs": [
        {
          "internalType": "address",
          "name": "owner",
          "type": "address"
        }
      ],
      "name": "OwnableInvalidOwner",
      "type": "error"
    },
    {
      "inputs": [
        {
          "internalType": "address",
          "name": "account",
          "type": "address"
        }
      ],
      "name": "OwnableUnauthorizedAccount",
      "type": "error"
    },
    {
      "anonymous": false,
      "inputs": [
        {
          "indexed": true,
          "internalType": "address",
          "name": "previousOwner",
          "type": "address"
        },
        {
          "indexed": true,
          "internalType": "address",
          "name": "newOwner",
          "type": "address"
        }
      ],
      "name": "OwnershipTransferred",
      "type": "event"
    },
    {
      "anonymous": false,
      "inputs": [
        {
          "indexed": true,
          "internalType": "uint256",
          "name": "id",
          "type": "uint256"
        },
        {
          "indexed": false,
          "internalType": "string",
          "name": "description",
          "type": "string"
        },
        {
          "indexed": true,
          "internalType": "address",
          "name": "creator",
          "type": "address"
        }
      ],
      "name": "PackageCreated",
      "type": "event"
    },
    {
      "anonymous": false,
      "inputs": [
        {
          "indexed": true,
          "internalType": "uint256",
          "name": "id",
          "type": "uint256"
        },
        {
          "indexed": true,
          "internalType": "address",
          "name": "owner",
          "type": "address"
        }
      ],
      "name": "PackageDelivered",
      "type": "event"
    },
    {
      "anonymous": false,
      "inputs": [
        {
          "indexed": true,
          "internalType": "uint256",
          "name": "id",
          "type": "uint256"
        },
        {
          "indexed": true,
          "internalType": "address",
          "name": "from",
          "type": "address"
        },
        {
          "indexed": true,
          "internalType": "address",
          "name": "to",
          "type": "address"
        },
        {
          "indexed": false,
          "internalType": "enum SupplyChain.Status",
          "name": "status",
          "type": "uint8"
        }
      ],
      "name": "PackageTransferred",
      "type": "event"
    },
    {
      "inputs": [
        {
          "internalType": "string",
          "name": "description",
          "type": "string"
        }
      ],
      "name": "createPackage",
      "outputs": [
        {
          "internalType": "uint256",
          "name": "",
          "type": "uint256"
        }
      ],
      "stateMutability": "nonpayable",
      "type": "function"
    },
    {
      "inputs": [
        {
          "internalType": "uint256",
          "name": "packageId",
          "type": "uint256"
        }
      ],
      "name": "getPackageDetails",
      "outputs": [
        {
          "internalType": "uint256",
          "name": "id",
          "type": "uint256"
        },
        {
          "internalType": "string",
          "name": "description",
          "type": "string"
        },
        {
          "internalType": "address",
          "name": "creator",
          "type": "address"
        },
        {
          "internalType": "address",
          "name": "currentOwner",
          "type": "address"
        },
        {
          "internalType": "enum SupplyChain.Status",
          "name": "status",
          "type": "uint8"
        }
      ],
      "stateMutability": "view",
      "type": "function"
    },
    {
      "inputs": [
        {
          "internalType": "uint256",
          "name": "packageId",
          "type": "uint256"
        }
      ],
      "name": "markAsDelivered",
      "outputs": [],
      "stateMutability": "nonpayable",
      "type": "function"
    },
    {
      "inputs": [
        {
          "internalType": "uint256",
          "name": "packageId",
          "type": "uint256"
        }
      ],
      "name": "markAsInTransit",
      "outputs": [],
      "stateMutability": "nonpayable",
      "type": "function"
    },
    {
      "inputs": [],
      "name": "owner",
      "outputs": [
        {
          "internalType": "address",
          "name": "",
          "type": "address"
        }
      ],
      "stateMutability": "view",
      "type": "function"
    },
    {
      "inputs": [],
      "name": "renounceOwnership",
      "outputs": [],
      "stateMutability": "nonpayable",
      "type": "function"
    },
    {
      "inputs": [
        {
          "internalType": "uint256",
          "name": "packageId",
          "type": "uint256"
        },
        {
          "internalType": "address",
          "name": "newOwner",
          "type": "address"
        }
      ],
      "name": "transferOwnership",
      "outputs": [],
      "stateMutability": "nonpayable",
      "type": "function"
    },
    {
      "inputs": [
        {
          "internalType": "address",
          "name": "newOwner",
          "type": "address"
        }
      ],
      "name": "transferOwnership",
      "outputs": [],
      "stateMutability": "nonpayable",
      "type": "function"
    }
  ],
  "bytecode": "0x6080604052600180553480156200001557600080fd5b5033600073ffffffffffffffffffffffffffffffffffffffff168173ffffffffffffffffffffffffffffffffffffffff16036200008c5760006040517f1e4fbdf7000000000000000000000000000000000000000000000000000000008152600401620000839190620001ad565b60405180910390fd5b6200009d81620000a460201b60201c565b50620001ca565b60008060009054906101000a900473ffffffffffffffffffffffffffffffffffffffff169050816000806101000a81548173ffffffffffffffffffffffffffffffffffffffff021916908373ffffffffffffffffffffffffffffffffffffffff1602179055508173ffffffffffffffffffffffffffffffffffffffff168173ffffffffffffffffffffffffffffffffffffffff167f8be0079c531659141344cd1fd0a4f28419497f9722a3daafe3b4186f6b6457e060405160405180910390a35050565b600073ffffffffffffffffffffffffffffffffffffffff82169050919050565b6000620001958262000168565b9050919050565b620001a78162000188565b82525050565b6000602082019050620001c460008301846200019c565b92915050565b61185c80620001da6000396000f3fe608060405234801561001057600080fd5b50600436106100885760003560e01c8063968ee6ed1161005b578063968ee6ed14610105578063b275628514610121578063e4e1b28c1461013d578063f2fde38b1461016d57610088565b806329507f731461008d5780636c435e36146100a9578063715018a6146100dd5780638da5cb5b146100e7575b600080fd5b6100a760048036038101906100a29190610e40565b610189565b005b6100c360048036038101906100be9190610e80565b610408565b6040516100d4959493929190610fd2565b60405180910390f35b6100e561057e565b005b6100ef610592565b6040516100fc919061102c565b60405180910390f35b61011f600480360381019061011a9190610e80565b6105bb565b005b61013b60048036038101906101369190610e80565b61074e565b005b610157600480360381019061015291906110ac565b6109af565b60405161016491906110f9565b60405180910390f35b61018760048036038101906101829190611114565b610bc9565b005b6000600260008481526020019081526020016000209050600183101580156101b2575060015483105b6101f1576040517f08c379a00000000000000000000000000000000000000000000000000000000081526004016101e89061118d565b60405180910390fd5b8060030160009054906101000a900473ffffffffffffffffffffffffffffffffffffffff1673ffffffffffffffffffffffffffffffffffffffff163373ffffffffffffffffffffffffffffffffffffffff1614610283576040517f08c379a000000000000000000000000000000000000000000000000000000000815260040161027a906111f9565b60405180910390fd5b600073ffffffffffffffffffffffffffffffffffffffff168273ffffffffffffffffffffffffffffffffffffffff16036102f2576040517f08c379a00000000000000000000000000000000000000000000000000000000081526004016102e990611265565b60405180910390fd5b60008160030160009054906101000a900473ffffffffffffffffffffffffffffffffffffffff169050828260030160006101000a81548173ffffffffffffffffffffffffffffffffffffffff021916908373ffffffffffffffffffffffffffffffffffffffff16021790555060018260030160146101000a81548160ff0219169083600281111561038657610385610f5b565b5b02179055508273ffffffffffffffffffffffffffffffffffffffff168173ffffffffffffffffffffffffffffffffffffffff16857f9bdb8bdd9694b77460fb02f7b79e1f86cc3c616d5184bbece1a92adc2b8f4ce78560030160149054906101000a900460ff166040516103fa9190611285565b60405180910390a450505050565b60006060600080600060018610158015610423575060015486105b610462576040517f08c379a00000000000000000000000000000000000000000000000000000000081526004016104599061118d565b60405180910390fd5b60006002600088815260200190815260200160002090508060000154816001018260020160009054906101000a900473ffffffffffffffffffffffffffffffffffffffff168360030160009054906101000a900473ffffffffffffffffffffffffffffffffffffffff168460030160149054906101000a900460ff168380546104ea906112cf565b80601f0160208091040260200160405190810160405280929190818152602001828054610516906112cf565b80156105635780601f1061053857610100808354040283529160200191610563565b820191906000526020600020905b81548152906001019060200180831161054657829003601f168201915b50505050509350955095509550955095505091939590929450565b610586610c4f565b6105906000610cd6565b565b60008060009054906101000a900473ffffffffffffffffffffffffffffffffffffffff16905090565b6000600260008381526020019081526020016000209050600182101580156105e4575060015482105b610623576040517f08c379a000000000000000000000000000000000000000000000000000000000815260040161061a9061118d565b60405180910390fd5b8060030160009054906101000a900473ffffffffffffffffffffffffffffffffffffffff1673ffffffffffffffffffffffffffffffffffffffff163373ffffffffffffffffffffffffffffffffffffffff16146106b5576040517f08c379a00000000000000000000000000000000000000000000000000000000081526004016106ac90611372565b60405180910390fd5b60028160030160146101000a81548160ff021916908360028111156106dd576106dc610f5b565b5b02179055508060030160009054906101000a900473ffffffffffffffffffffffffffffffffffffffff1673ffffffffffffffffffffffffffffffffffffffff16827fdd940b4c0a591c09ff1b1398b5a2a336cb49f986e98a1f8d9fae939fe305be7c60405160405180910390a35050565b600060026000838152602001908152602001600020905060018210158015610777575060015482105b6107b6576040517f08c379a00000000000000000000000000000000000000000000000000000000081526004016107ad9061118d565b60405180910390fd5b8060030160009054906101000a900473ffffffffffffffffffffffffffffffffffffffff1673ffffffffffffffffffffffffffffffffffffffff163373ffffffffffffffffffffffffffffffffffffffff1614610848576040517f08c379a000000000000000000000000000000000000000000000000000000000815260040161083f90611404565b60405180910390fd5b60028081111561085b5761085a610f5b565b5b8160030160149054906101000a900460ff16600281111561087f5761087e610f5b565b5b146108bf576040517f08c379a00000000000000000000000000000000000000000000000000000000081526004016108b690611496565b60405180910390fd5b60018160030160146101000a81548160ff021916908360028111156108e7576108e6610f5b565b5b02179055508060030160009054906101000a900473ffffffffffffffffffffffffffffffffffffffff1673ffffffffffffffffffffffffffffffffffffffff168160030160009054906101000a900473ffffffffffffffffffffffffffffffffffffffff1673ffffffffffffffffffffffffffffffffffffffff16837f9bdb8bdd9694b77460fb02f7b79e1f86cc3c616d5184bbece1a92adc2b8f4ce78460030160149054906101000a900460ff166040516109a39190611285565b60405180910390a45050565b60008060015490506040518060a0016040528082815260200185858080601f016020809104026020016040519081016040528093929190818152602001838380828437600081840152601f19601f8201169050808301925050505050505081526020013373ffffffffffffffffffffffffffffffffffffffff1681526020013373ffffffffffffffffffffffffffffffffffffffff16815260200160006002811115610a5e57610a5d610f5b565b5b81525060026000838152602001908152602001600020600082015181600001556020820151816001019081610a939190611691565b5060408201518160020160006101000a81548173ffffffffffffffffffffffffffffffffffffffff021916908373ffffffffffffffffffffffffffffffffffffffff16021790555060608201518160030160006101000a81548173ffffffffffffffffffffffffffffffffffffffff021916908373ffffffffffffffffffffffffffffffffffffffff16021790555060808201518160030160146101000a81548160ff02191690836002811115610b4d57610b4c610f5b565b5b02179055509050506001806000828254610b679190611792565b925050819055503373ffffffffffffffffffffffffffffffffffffffff16817fe4f193822921e5f4c7248c43a87416d3f640ca1f69d906d0f9c7150a882b87fe8686604051610bb7929190611802565b60405180910390a38091505092915050565b610bd1610c4f565b600073ffffffffffffffffffffffffffffffffffffffff168173ffffffffffffffffffffffffffffffffffffffff1603610c435760006040517f1e4fbdf7000000000000000000000000000000000000000000000000000000008152600401610c3a919061102c565b60405180910390fd5b610c4c81610cd6565b50565b610c57610d9a565b73ffffffffffffffffffffffffffffffffffffffff16610c75610592565b73ffffffffffffffffffffffffffffffffffffffff1614610cd457610c98610d9a565b6040517f118cdaa7000000000000000000000000000000000000000000000000000000008152600401610ccb919061102c565b60405180910390fd5b565b60008060009054906101000a900473ffffffffffffffffffffffffffffffffffffffff169050816000806101000a81548173ffffffffffffffffffffffffffffffffffffffff021916908373ffffffffffffffffffffffffffffffffffffffff1602179055508173ffffffffffffffffffffffffffffffffffffffff168173ffffffffffffffffffffffffffffffffffffffff167f8be0079c531659141344cd1fd0a4f28419497f9722a3daafe3b4186f6b6457e060405160405180910390a35050565b600033905090565b600080fd5b600080fd5b6000819050919050565b610dbf81610dac565b8114610dca57600080fd5b50565b600081359050610ddc81610db6565b92915050565b600073ffffffffffffffffffffffffffffffffffffffff82169050919050565b6000610e0d82610de2565b9050919050565b610e1d81610e02565b8114610e2857600080fd5b50565b600081359050610e3a81610e14565b92915050565b60008060408385031215610e5757610e56610da2565b5b6000610e6585828601610dcd565b9250506020610e7685828601610e2b565b9150509250929050565b600060208284031215610e9657610e95610da2565b5b6000610ea484828501610dcd565b91505092915050565b610eb681610dac565b82525050565b600081519050919050565b600082825260208201905092915050565b60005b83811015610ef6578082015181840152602081019050610edb565b60008484015250505050565b6000601f19601f8301169050919050565b6000610f1e82610ebc565b610f288185610ec7565b9350610f38818560208601610ed8565b610f4181610f02565b840191505092915050565b610f5581610e02565b82525050565b7f4e487b7100000000000000000000000000000000000000000000000000000000600052602160045260246000fd5b60038110610f9b57610f9a610f5b565b5b50565b6000819050610fac82610f8a565b919050565b6000610fbc82610f9e565b9050919050565b610fcc81610fb1565b82525050565b600060a082019050610fe76000830188610ead565b8181036020830152610ff98187610f13565b90506110086040830186610f4c565b6110156060830185610f4c565b6110226080830184610fc3565b9695505050505050565b60006020820190506110416000830184610f4c565b92915050565b600080fd5b600080fd5b600080fd5b60008083601f84011261106c5761106b611047565b5b8235905067ffffffffffffffff8111156110895761108861104c565b5b6020830191508360018202830111156110a5576110a4611051565b5b9250929050565b600080602083850312156110c3576110c2610da2565b5b600083013567ffffffffffffffff8111156110e1576110e0610da7565b5b6110ed85828601611056565b92509250509250929050565b600060208201905061110e6000830184610ead565b92915050565b60006020828403121561112a57611129610da2565b5b600061113884828501610e2b565b91505092915050565b7f5061636b61676520646f6573206e6f7420657869737400000000000000000000600082015250565b6000611177601683610ec7565b915061118282611141565b602082019050919050565b600060208201905081810360008301526111a68161116a565b9050919050565b7f4f6e6c792063757272656e74206f776e65722063616e207472616e7366657200600082015250565b60006111e3601f83610ec7565b91506111ee826111ad565b602082019050919050565b60006020820190508181036000830152611212816111d6565b9050919050565b7f4e6577206f776e65722063616e6e6f74206265207a65726f2061646472657373600082015250565b600061124f602083610ec7565b915061125a82611219565b602082019050919050565b6000602082019050818103600083015261127e81611242565b9050919050565b600060208201905061129a6000830184610fc3565b92915050565b7f4e487b7100000000000000000000000000000000000000000000000000000000600052602260045260246000fd5b600060028204905060018216806112e757607f821691505b6020821081036112fa576112f96112a0565b5b50919050565b7f4f6e6c792063757272656e74206f776e65722063616e206d61726b2064656c6960008201527f7665726564000000000000000000000000000000000000000000000000000000602082015250565b600061135c602583610ec7565b915061136782611300565b604082019050919050565b6000602082019050818103600083015261138b8161134f565b9050919050565b7f4f6e6c792063757272656e74206f776e65722063616e206d61726b20696e207460008201527f72616e7369740000000000000000000000000000000000000000000000000000602082015250565b60006113ee602683610ec7565b91506113f982611392565b604082019050919050565b6000602082019050818103600083015261141d816113e1565b9050919050565b7f5061636b616765206d7573742062652064656c697665726564206265666f726560008201527f206d61726b696e6720617320696e207472616e73697400000000000000000000602082015250565b6000611480603683610ec7565b915061148b82611424565b604082019050919050565b600060208201905081810360008301526114af81611473565b9050919050565b7f4e487b7100000000000000000000000000000000000000000000000000000000600052604160045260246000fd5b60008190508160005260206000209050919050565b60006020601f8301049050919050565b600082821b905092915050565b6000600883026115477fffffffffffffffffffffffffffffffffffffffffffffffffffffffffffffffff8261150a565b611551868361150a565b95508019841693508086168417925050509392505050565b6000819050919050565b600061158e61158961158484610dac565b611569565b610dac565b9050919050565b6000819050919050565b6115a883611573565b6115bc6115b482611595565b848454611517565b825550505050565b600090565b6115d16115c4565b6115dc81848461159f565b505050565b5b81811015611600576115f56000826115c9565b6001810190506115e2565b5050565b601f82111561164557611616816114e5565b61161f846114fa565b8101602085101561162e578190505b61164261163a856114fa565b8301826115e1565b50505b505050565b600082821c905092915050565b60006116686000198460080261164a565b1980831691505092915050565b60006116818383611657565b9150826002028217905092915050565b61169a82610ebc565b67ffffffffffffffff8111156116b3576116b26114b6565b5b6116bd82546112cf565b6116c8828285611604565b600060209050601f8311600181146116fb57600084156116e9578287015190505b6116f38582611675565b86555061175b565b601f198416611709866114e5565b60005b828110156117315784890151825560018201915060208501945060208101905061170c565b8683101561174e578489015161174a601f891682611657565b8355505b6001600288020188555050505b505050505050565b7f4e487b7100000000000000000000000000000000000000000000000000000000600052601160045260246000fd5b600061179d82610dac565b91506117a883610dac565b92508282019050808211156117c0576117bf611763565b5b92915050565b82818337600083830152505050565b60006117e18385610ec7565b93506117ee8385846117c6565b6117f783610f02565b840190509392505050565b6000602082019050818103600083015261181d8184866117d5565b9050939250505056fea26469706673582212201b912fd44a7a8d4b27494510bb1cba39c88fb78ede8547b84977e541ab85cc4264736f6c63430008180033",
  "linkReferences": {},
  "deployedLinkReferences": {}
}